{
  "contractName": "SimpleToken",
  "abi": [
    {
      "inputs": [
        {
          "internalType": "string",
          "name": "_name",
          "type": "string"
        },
        {
          "internalType": "string",
          "name": "_symbol",
          "type": "string"
        },
        {
          "internalType": "uint256",
          "name": "initialSupply",
          "type": "uint256"
        }
      ],
      "stateMutability": "nonpayable",
      "type": "constructor"
    },
    {
      "inputs": [],
      "name": "name",
      "outputs": [
        {
          "internalType": "string",
          "name": "",
          "type": "string"
        }
      ],
      "stateMutability": "view",
      "type": "function",
      "constant": true
    },
    {
      "inputs": [],
      "name": "symbol",
      "outputs": [
        {
          "internalType": "string",
          "name": "",
          "type": "string"
        }
      ],
      "stateMutability": "view",
      "type": "function",
      "constant": true
    },
    {
      "inputs": [],
      "name": "totalSupply",
      "outputs": [
        {
          "internalType": "uint256",
          "name": "",
          "type": "uint256"
        }
      ],
      "stateMutability": "view",
      "type": "function",
      "constant": true
    },
    {
      "inputs": [
        {
          "internalType": "address",
          "name": "account",
          "type": "address"
        }
      ],
      "name": "balanceOf",
      "outputs": [
        {
          "internalType": "uint256",
          "name": "",
          "type": "uint256"
        }
      ],
      "stateMutability": "view",
      "type": "function",
      "constant": true
    },
    {
      "inputs": [
        {
          "internalType": "address",
          "name": "to",
          "type": "address"
        },
        {
          "internalType": "uint256",
          "name": "value",
          "type": "uint256"
        }
      ],
      "name": "transfer",
      "outputs": [],
      "stateMutability": "nonpayable",
      "type": "function"
    },
    {
      "inputs": [
        {
          "internalType": "uint256",
          "name": "amount",
          "type": "uint256"
        }
      ],
      "name": "mint",
      "outputs": [],
      "stateMutability": "nonpayable",
      "type": "function"
    },
    {
      "inputs": [
        {
          "internalType": "uint256",
          "name": "amount",
          "type": "uint256"
        }
      ],
      "name": "burn",
      "outputs": [],
      "stateMutability": "nonpayable",
      "type": "function"
    }
  ],
  "bytecode": "0x60806040523480156200001157600080fd5b506040516200094d3803806200094d83398101604081905262000034916200014b565b60006200004284826200024d565b5060016200005183826200024d565b50600281905533600081815260046020526040902091909155600380546001600160a01b031916909117905550620003199050565b634e487b7160e01b600052604160045260246000fd5b600082601f830112620000ae57600080fd5b81516001600160401b0380821115620000cb57620000cb62000086565b604051601f8301601f19908116603f01168101908282118183101715620000f657620000f662000086565b816040528381526020925086838588010111156200011357600080fd5b600091505b8382101562000137578582018301518183018401529082019062000118565b600093810190920192909252949350505050565b6000806000606084860312156200016157600080fd5b83516001600160401b03808211156200017957600080fd5b62000187878388016200009c565b945060208601519150808211156200019e57600080fd5b50620001ad868287016200009c565b925050604084015190509250925092565b600181811c90821680620001d357607f821691505b602082108103620001f457634e487b7160e01b600052602260045260246000fd5b50919050565b601f8211156200024857600081815260208120601f850160051c81016020861015620002235750805b601f850160051c820191505b8181101562000244578281556001016200022f565b5050505b505050565b81516001600160401b0381111562000269576200026962000086565b62000281816200027a8454620001be565b84620001fa565b602080601f831160018114620002b95760008415620002a05750858301515b600019600386901b1c1916600185901b17855562000244565b600085815260208120601f198616915b82811015620002ea57888601518255948401946001909101908401620002c9565b5085821015620003095787850151600019600388901b60f8161c191681555b5050505050600190811b01905550565b61062480620003296000396000f3fe608060405234801561001057600080fd5b506004361061007d5760003560e01c806370a082311161005b57806370a08231146100c757806395d89b41146100f0578063a0712d68146100f8578063a9059cbb1461010b57600080fd5b806306fdde031461008257806318160ddd146100a057806342966c68146100b2575b600080fd5b61008a61011e565b6040516100979190610455565b60405180910390f35b6002545b604051908152602001610097565b6100c56100c03660046104a3565b6101ac565b005b6100a46100d53660046104d8565b6001600160a01b031660009081526004602052604090205490565b61008a6102e2565b6100c56101063660046104a3565b6102ef565b6100c56101193660046104fa565b6103aa565b6000805461012b90610524565b80601f016020809104026020016040519081016040528092919081815260200182805461015790610524565b80156101a45780601f10610179576101008083540402835291602001916101a4565b820191906000526020600020905b81548152906001019060200180831161018757829003601f168201915b505050505081565b6003546001600160a01b031633146101df5760405162461bcd60e51b81526004016101d69061055e565b60405180910390fd5b6000811161022f5760405162461bcd60e51b815260206004820181905260248201527f416d6f756e74206d7573742062652067726561746572207468616e207a65726f60448201526064016101d6565b6003546001600160a01b03166000908152600460205260409020548111156102995760405162461bcd60e51b815260206004820181905260248201527f496e73756666696369656e742062616c616e636520666f72206275726e696e6760448201526064016101d6565b80600260008282546102ab91906105c2565b90915550506003546001600160a01b0316600090815260046020526040812080548392906102da9084906105c2565b909155505050565b6001805461012b90610524565b6003546001600160a01b031633146103195760405162461bcd60e51b81526004016101d69061055e565b600081116103695760405162461bcd60e51b815260206004820181905260248201527f416d6f756e74206d7573742062652067726561746572207468616e207a65726f60448201526064016101d6565b806002600082825461037b91906105db565b90915550506003546001600160a01b0316600090815260046020526040812080548392906102da9084906105db565b336000908152600460205260409020548111156104005760405162461bcd60e51b8152602060048201526014602482015273496e73756666696369656e742062616c616e636560601b60448201526064016101d6565b336000908152600460205260408120805483929061041f9084906105c2565b90915550506001600160a01b0382166000908152600460205260408120805483929061044c9084906105db565b90915550505050565b600060208083528351808285015260005b8181101561048257858101830151858201604001528201610466565b506000604082860101526040601f19601f8301168501019250505092915050565b6000602082840312156104b557600080fd5b5035919050565b80356001600160a01b03811681146104d357600080fd5b919050565b6000602082840312156104ea57600080fd5b6104f3826104bc565b9392505050565b6000806040838503121561050d57600080fd5b610516836104bc565b946020939093013593505050565b600181811c9082168061053857607f821691505b60208210810361055857634e487b7160e01b600052602260045260246000fd5b50919050565b6020808252602e908201527f4f6e6c792074686520636f6e7472616374206f776e65722063616e2063616c6c60408201526d103a3434b990333ab731ba34b7b760911b606082015260800190565b634e487b7160e01b600052601160045260246000fd5b818103818111156105d5576105d56105ac565b92915050565b808201808211156105d5576105d56105ac56fea26469706673582212206b194944f4fd123ceb7ac28b595e290ef0476a29181e1d6c4f4ba5ee0f609f8a64736f6c63430008100033",
  "immutableReferences": {},
  "source": "// SPDX-License-Identifier: MIT\npragma solidity >=0.8.0 <=0.8.19;\n\ncontract SimpleToken {\n    string public name;\n    string public symbol;\n    uint256 private _totalSupply;\n    address private _owner;\n\n    mapping(address => uint256) private _balances;\n\n    modifier onlyOwner() {\n        require(\n            msg.sender == _owner,\n            \"Only the contract owner can call this function\"\n        );\n        _;\n    }\n\n    constructor(\n        string memory _name,\n        string memory _symbol,\n        uint256 initialSupply\n    ) {\n        name = _name;\n        symbol = _symbol;\n        _totalSupply = initialSupply;\n        _balances[msg.sender] = _totalSupply;\n        _owner = msg.sender;\n    }\n\n    function totalSupply() external view returns (uint256) {\n        return _totalSupply;\n    }\n\n    function balanceOf(address account) external view returns (uint256) {\n        return _balances[account];\n    }\n\n    function transfer(address to, uint256 value) external {\n        require(value <= _balances[msg.sender], \"Insufficient balance\");\n\n        _balances[msg.sender] -= value;\n        _balances[to] += value;\n    }\n\n    function mint(uint256 amount) external onlyOwner {\n        require(amount > 0, \"Amount must be greater than zero\");\n\n        _totalSupply += amount;\n        _balances[_owner] += amount;\n    }\n\n    function burn(uint256 amount) external onlyOwner {\n        require(amount > 0, \"Amount must be greater than zero\");\n        require(\n            amount <= _balances[_owner],\n            \"Insufficient balance for burning\"\n        );\n\n        _totalSupply -= amount;\n        _balances[_owner] -= amount;\n    }\n}\n",
  "sourcePath": "/Users/timjeric/Downloads/asd/Blockchain_Zavrsni/blockchain_projekt/contracts/Simple_Token.sol",
  "compiler": {
    "name": "solc",
    "version": "0.8.16+commit.07a7930e.Emscripten.clang"
  },
  "schemaVersion": "3.4.16",
  "updatedAt": "2024-01-31T09:39:20.358Z",
  "networkType": "ethereum",
  "devdoc": {
    "kind": "dev",
    "methods": {},
    "version": 1
  },
  "userdoc": {
    "kind": "user",
    "methods": {},
    "version": 1
  }
}