{
  "contractName": "SimpleToken",
  "abi": [
    {
      "inputs": [
        {
          "internalType": "string",
          "name": "_name",
          "type": "string"
        },
        {
          "internalType": "string",
          "name": "_symbol",
          "type": "string"
        },
        {
          "internalType": "uint256",
          "name": "initialSupply",
          "type": "uint256"
        }
      ],
      "stateMutability": "nonpayable",
      "type": "constructor"
    },
    {
      "inputs": [],
      "name": "a",
      "outputs": [
        {
          "internalType": "string",
          "name": "",
          "type": "string"
        }
      ],
      "stateMutability": "view",
      "type": "function",
      "constant": true
    },
    {
      "inputs": [],
      "name": "name",
      "outputs": [
        {
          "internalType": "string",
          "name": "",
          "type": "string"
        }
      ],
      "stateMutability": "view",
      "type": "function",
      "constant": true
    },
    {
      "inputs": [],
      "name": "symbol",
      "outputs": [
        {
          "internalType": "string",
          "name": "",
          "type": "string"
        }
      ],
      "stateMutability": "view",
      "type": "function",
      "constant": true
    },
    {
      "inputs": [],
      "name": "totalSupply",
      "outputs": [
        {
          "internalType": "uint256",
          "name": "",
          "type": "uint256"
        }
      ],
      "stateMutability": "view",
      "type": "function",
      "constant": true
    },
    {
      "inputs": [
        {
          "internalType": "address",
          "name": "account",
          "type": "address"
        }
      ],
      "name": "balanceOf",
      "outputs": [
        {
          "internalType": "uint256",
          "name": "",
          "type": "uint256"
        }
      ],
      "stateMutability": "view",
      "type": "function",
      "constant": true
    },
    {
      "inputs": [
        {
          "internalType": "address",
          "name": "to",
          "type": "address"
        },
        {
          "internalType": "uint256",
          "name": "value",
          "type": "uint256"
        }
      ],
      "name": "transfer",
      "outputs": [],
      "stateMutability": "nonpayable",
      "type": "function"
    },
    {
      "inputs": [
        {
          "internalType": "uint256",
          "name": "amount",
          "type": "uint256"
        }
      ],
      "name": "mint",
      "outputs": [],
      "stateMutability": "nonpayable",
      "type": "function"
    },
    {
      "inputs": [
        {
          "internalType": "uint256",
          "name": "amount",
          "type": "uint256"
        }
      ],
      "name": "burn",
      "outputs": [],
      "stateMutability": "nonpayable",
      "type": "function"
    }
  ],
  "bytecode": "0x60806040523480156200001157600080fd5b50604051620013ce380380620013ce8339818101604052810190620000379190620002c0565b82600090816200004891906200059b565b5081600190816200005a91906200059b565b5080600281905550600254600560003373ffffffffffffffffffffffffffffffffffffffff1673ffffffffffffffffffffffffffffffffffffffff1681526020019081526020016000208190555033600360006101000a81548173ffffffffffffffffffffffffffffffffffffffff021916908373ffffffffffffffffffffffffffffffffffffffff16021790555050505062000682565b6000604051905090565b600080fd5b600080fd5b600080fd5b600080fd5b6000601f19601f8301169050919050565b7f4e487b7100000000000000000000000000000000000000000000000000000000600052604160045260246000fd5b6200015b8262000110565b810181811067ffffffffffffffff821117156200017d576200017c62000121565b5b80604052505050565b600062000192620000f2565b9050620001a0828262000150565b919050565b600067ffffffffffffffff821115620001c357620001c262000121565b5b620001ce8262000110565b9050602081019050919050565b60005b83811015620001fb578082015181840152602081019050620001de565b60008484015250505050565b60006200021e6200021884620001a5565b62000186565b9050828152602081018484840111156200023d576200023c6200010b565b5b6200024a848285620001db565b509392505050565b600082601f8301126200026a576200026962000106565b5b81516200027c84826020860162000207565b91505092915050565b6000819050919050565b6200029a8162000285565b8114620002a657600080fd5b50565b600081519050620002ba816200028f565b92915050565b600080600060608486031215620002dc57620002db620000fc565b5b600084015167ffffffffffffffff811115620002fd57620002fc62000101565b5b6200030b8682870162000252565b935050602084015167ffffffffffffffff8111156200032f576200032e62000101565b5b6200033d8682870162000252565b92505060406200035086828701620002a9565b9150509250925092565b600081519050919050565b7f4e487b7100000000000000000000000000000000000000000000000000000000600052602260045260246000fd5b60006002820490506001821680620003ad57607f821691505b602082108103620003c357620003c262000365565b5b50919050565b60008190508160005260206000209050919050565b60006020601f8301049050919050565b600082821b905092915050565b6000600883026200042d7fffffffffffffffffffffffffffffffffffffffffffffffffffffffffffffffff82620003ee565b620004398683620003ee565b95508019841693508086168417925050509392505050565b6000819050919050565b60006200047c62000476620004708462000285565b62000451565b62000285565b9050919050565b6000819050919050565b62000498836200045b565b620004b0620004a78262000483565b848454620003fb565b825550505050565b600090565b620004c7620004b8565b620004d48184846200048d565b505050565b5b81811015620004fc57620004f0600082620004bd565b600181019050620004da565b5050565b601f8211156200054b576200051581620003c9565b6200052084620003de565b8101602085101562000530578190505b620005486200053f85620003de565b830182620004d9565b50505b505050565b600082821c905092915050565b6000620005706000198460080262000550565b1980831691505092915050565b60006200058b83836200055d565b9150826002028217905092915050565b620005a6826200035a565b67ffffffffffffffff811115620005c257620005c162000121565b5b620005ce825462000394565b620005db82828562000500565b600060209050601f831160018114620006135760008415620005fe578287015190505b6200060a85826200057d565b8655506200067a565b601f1984166200062386620003c9565b60005b828110156200064d5784890151825560018201915060208501945060208101905062000626565b868310156200066d578489015162000669601f8916826200055d565b8355505b6001600288020188555050505b505050505050565b610d3c80620006926000396000f3fe608060405234801561001057600080fd5b50600436106100885760003560e01c806370a082311161005b57806370a082311461010357806395d89b4114610133578063a0712d6814610151578063a9059cbb1461016d57610088565b806306fdde031461008d5780630dbe671f146100ab57806318160ddd146100c957806342966c68146100e7575b600080fd5b610095610189565b6040516100a291906108ba565b60405180910390f35b6100b3610217565b6040516100c091906108ba565b60405180910390f35b6100d16102a5565b6040516100de91906108f5565b60405180910390f35b61010160048036038101906100fc9190610941565b6102af565b005b61011d600480360381019061011891906109cc565b6104ba565b60405161012a91906108f5565b60405180910390f35b61013b610503565b60405161014891906108ba565b60405180910390f35b61016b60048036038101906101669190610941565b610591565b005b610187600480360381019061018291906109f9565b6106f8565b005b6000805461019690610a68565b80601f01602080910402602001604051908101604052809291908181526020018280546101c290610a68565b801561020f5780601f106101e45761010080835404028352916020019161020f565b820191906000526020600020905b8154815290600101906020018083116101f257829003601f168201915b505050505081565b6004805461022490610a68565b80601f016020809104026020016040519081016040528092919081815260200182805461025090610a68565b801561029d5780601f106102725761010080835404028352916020019161029d565b820191906000526020600020905b81548152906001019060200180831161028057829003601f168201915b505050505081565b6000600254905090565b600360009054906101000a900473ffffffffffffffffffffffffffffffffffffffff1673ffffffffffffffffffffffffffffffffffffffff163373ffffffffffffffffffffffffffffffffffffffff161461033f576040517f08c379a000000000000000000000000000000000000000000000000000000000815260040161033690610b0b565b60405180910390fd5b60008111610382576040517f08c379a000000000000000000000000000000000000000000000000000000000815260040161037990610b77565b60405180910390fd5b60056000600360009054906101000a900473ffffffffffffffffffffffffffffffffffffffff1673ffffffffffffffffffffffffffffffffffffffff1673ffffffffffffffffffffffffffffffffffffffff16815260200190815260200160002054811115610426576040517f08c379a000000000000000000000000000000000000000000000000000000000815260040161041d90610be3565b60405180910390fd5b80600260008282546104389190610c32565b925050819055508060056000600360009054906101000a900473ffffffffffffffffffffffffffffffffffffffff1673ffffffffffffffffffffffffffffffffffffffff1673ffffffffffffffffffffffffffffffffffffffff16815260200190815260200160002060008282546104b09190610c32565b9250508190555050565b6000600560008373ffffffffffffffffffffffffffffffffffffffff1673ffffffffffffffffffffffffffffffffffffffff168152602001908152602001600020549050919050565b6001805461051090610a68565b80601f016020809104026020016040519081016040528092919081815260200182805461053c90610a68565b80156105895780601f1061055e57610100808354040283529160200191610589565b820191906000526020600020905b81548152906001019060200180831161056c57829003601f168201915b505050505081565b600360009054906101000a900473ffffffffffffffffffffffffffffffffffffffff1673ffffffffffffffffffffffffffffffffffffffff163373ffffffffffffffffffffffffffffffffffffffff1614610621576040517f08c379a000000000000000000000000000000000000000000000000000000000815260040161061890610b0b565b60405180910390fd5b60008111610664576040517f08c379a000000000000000000000000000000000000000000000000000000000815260040161065b90610b77565b60405180910390fd5b80600260008282546106769190610c66565b925050819055508060056000600360009054906101000a900473ffffffffffffffffffffffffffffffffffffffff1673ffffffffffffffffffffffffffffffffffffffff1673ffffffffffffffffffffffffffffffffffffffff16815260200190815260200160002060008282546106ee9190610c66565b9250508190555050565b600560003373ffffffffffffffffffffffffffffffffffffffff1673ffffffffffffffffffffffffffffffffffffffff1681526020019081526020016000205481111561077a576040517f08c379a000000000000000000000000000000000000000000000000000000000815260040161077190610ce6565b60405180910390fd5b80600560003373ffffffffffffffffffffffffffffffffffffffff1673ffffffffffffffffffffffffffffffffffffffff16815260200190815260200160002060008282546107c99190610c32565b9250508190555080600560008473ffffffffffffffffffffffffffffffffffffffff1673ffffffffffffffffffffffffffffffffffffffff168152602001908152602001600020600082825461081f9190610c66565b925050819055505050565b600081519050919050565b600082825260208201905092915050565b60005b83811015610864578082015181840152602081019050610849565b60008484015250505050565b6000601f19601f8301169050919050565b600061088c8261082a565b6108968185610835565b93506108a6818560208601610846565b6108af81610870565b840191505092915050565b600060208201905081810360008301526108d48184610881565b905092915050565b6000819050919050565b6108ef816108dc565b82525050565b600060208201905061090a60008301846108e6565b92915050565b600080fd5b61091e816108dc565b811461092957600080fd5b50565b60008135905061093b81610915565b92915050565b60006020828403121561095757610956610910565b5b60006109658482850161092c565b91505092915050565b600073ffffffffffffffffffffffffffffffffffffffff82169050919050565b60006109998261096e565b9050919050565b6109a98161098e565b81146109b457600080fd5b50565b6000813590506109c6816109a0565b92915050565b6000602082840312156109e2576109e1610910565b5b60006109f0848285016109b7565b91505092915050565b60008060408385031215610a1057610a0f610910565b5b6000610a1e858286016109b7565b9250506020610a2f8582860161092c565b9150509250929050565b7f4e487b7100000000000000000000000000000000000000000000000000000000600052602260045260246000fd5b60006002820490506001821680610a8057607f821691505b602082108103610a9357610a92610a39565b5b50919050565b7f4f6e6c792074686520636f6e7472616374206f776e65722063616e2063616c6c60008201527f20746869732066756e6374696f6e000000000000000000000000000000000000602082015250565b6000610af5602e83610835565b9150610b0082610a99565b604082019050919050565b60006020820190508181036000830152610b2481610ae8565b9050919050565b7f416d6f756e74206d7573742062652067726561746572207468616e207a65726f600082015250565b6000610b61602083610835565b9150610b6c82610b2b565b602082019050919050565b60006020820190508181036000830152610b9081610b54565b9050919050565b7f496e73756666696369656e742062616c616e636520666f72206275726e696e67600082015250565b6000610bcd602083610835565b9150610bd882610b97565b602082019050919050565b60006020820190508181036000830152610bfc81610bc0565b9050919050565b7f4e487b7100000000000000000000000000000000000000000000000000000000600052601160045260246000fd5b6000610c3d826108dc565b9150610c48836108dc565b9250828203905081811115610c6057610c5f610c03565b5b92915050565b6000610c71826108dc565b9150610c7c836108dc565b9250828201905080821115610c9457610c93610c03565b5b92915050565b7f496e73756666696369656e742062616c616e6365000000000000000000000000600082015250565b6000610cd0601483610835565b9150610cdb82610c9a565b602082019050919050565b60006020820190508181036000830152610cff81610cc3565b905091905056fea264697066735822122053117e0b6874aa30abd75cf561a2261710caf876435014bcebe7e6f3d9c7953364736f6c63430008100033",
  "immutableReferences": {},
  "source": "// SPDX-License-Identifier: MIT\npragma solidity >=0.8.0 <=0.8.19;\n\ncontract SimpleToken {\n    string public name;\n    string public symbol;\n    uint256 private _totalSupply;\n    address private _owner;\n    string public a;\n    mapping(address => uint256) private _balances;\n\n    modifier onlyOwner() {\n        require(\n            msg.sender == _owner,\n            \"Only the contract owner can call this function\"\n        );\n        _;\n    }\n\n    constructor(\n        string memory _name,\n        string memory _symbol,\n        uint256 initialSupply\n    ) {\n        name = _name;\n        symbol = _symbol;\n        _totalSupply = initialSupply;\n        _balances[msg.sender] = _totalSupply;\n        _owner = msg.sender;\n    }\n\n    function totalSupply() external view returns (uint256) {\n        return _totalSupply;\n    }\n\n    function balanceOf(address account) external view returns (uint256) {\n        return _balances[account];\n    }\n\n    function transfer(address to, uint256 value) external {\n        require(value <= _balances[msg.sender], \"Insufficient balance\");\n\n        _balances[msg.sender] -= value;\n        _balances[to] += value;\n    }\n\n    function mint(uint256 amount) external onlyOwner {\n        require(amount > 0, \"Amount must be greater than zero\");\n\n        _totalSupply += amount;\n        _balances[_owner] += amount;\n    }\n\n    function burn(uint256 amount) external onlyOwner {\n        require(amount > 0, \"Amount must be greater than zero\");\n        require(\n            amount <= _balances[_owner],\n            \"Insufficient balance for burning\"\n        );\n\n        _totalSupply -= amount;\n        _balances[_owner] -= amount;\n    }\n}\n",
  "sourcePath": "/Users/timjeric/Downloads/asd/Blockchain_Zavrsni/contracts/Simple_Token.sol",
  "compiler": {
    "name": "solc",
    "version": "0.8.16+commit.07a7930e.Emscripten.clang"
  },
  "schemaVersion": "3.4.16",
  "updatedAt": "2024-02-01T13:10:12.877Z",
  "networkType": "ethereum",
  "devdoc": {
    "kind": "dev",
    "methods": {},
    "version": 1
  },
  "userdoc": {
    "kind": "user",
    "methods": {},
    "version": 1
  }
}